{
  "contractName": "ERC20Mintable",
  "abi": [
    {
      "inputs": [
        {
          "internalType": "string",
          "name": "_name",
          "type": "string"
        },
        {
          "internalType": "string",
          "name": "_symbol",
          "type": "string"
        },
        {
          "internalType": "uint8",
          "name": "decimals_",
          "type": "uint8"
        },
        {
          "internalType": "uint256",
          "name": "_initialSupply",
          "type": "uint256"
        },
        {
          "internalType": "uint256",
          "name": "_tokenPrice",
          "type": "uint256"
        },
        {
          "internalType": "bool",
          "name": "_antibot",
          "type": "bool"
        },
        {
          "internalType": "uint112",
          "name": "_startTime",
          "type": "uint112"
        },
        {
          "internalType": "uint112",
          "name": "_endTime",
          "type": "uint112"
        }
      ],
      "stateMutability": "nonpayable",
      "type": "constructor"
    },
    {
      "anonymous": false,
      "inputs": [
        {
          "indexed": true,
          "internalType": "address",
          "name": "owner",
          "type": "address"
        },
        {
          "indexed": true,
          "internalType": "address",
          "name": "spender",
          "type": "address"
        },
        {
          "indexed": false,
          "internalType": "uint256",
          "name": "value",
          "type": "uint256"
        }
      ],
      "name": "Approval",
      "type": "event"
    },
    {
      "anonymous": false,
      "inputs": [
        {
          "indexed": false,
          "internalType": "address",
          "name": "to",
          "type": "address"
        },
        {
          "indexed": false,
          "internalType": "uint256",
          "name": "ethAmount",
          "type": "uint256"
        },
        {
          "indexed": false,
          "internalType": "uint256",
          "name": "tokenAmount",
          "type": "uint256"
        },
        {
          "indexed": false,
          "internalType": "uint256",
          "name": "timestamp",
          "type": "uint256"
        }
      ],
      "name": "BuyToken",
      "type": "event"
    },
    {
      "anonymous": false,
      "inputs": [
        {
          "indexed": true,
          "internalType": "address",
          "name": "previousOwner",
          "type": "address"
        },
        {
          "indexed": true,
          "internalType": "address",
          "name": "newOwner",
          "type": "address"
        }
      ],
      "name": "OwnershipTransferred",
      "type": "event"
    },
    {
      "anonymous": false,
      "inputs": [
        {
          "indexed": true,
          "internalType": "address",
          "name": "from",
          "type": "address"
        },
        {
          "indexed": true,
          "internalType": "address",
          "name": "to",
          "type": "address"
        },
        {
          "indexed": false,
          "internalType": "uint256",
          "name": "value",
          "type": "uint256"
        }
      ],
      "name": "Transfer",
      "type": "event"
    },
    {
      "inputs": [
        {
          "internalType": "address",
          "name": "owner",
          "type": "address"
        },
        {
          "internalType": "address",
          "name": "spender",
          "type": "address"
        }
      ],
      "name": "allowance",
      "outputs": [
        {
          "internalType": "uint256",
          "name": "",
          "type": "uint256"
        }
      ],
      "stateMutability": "view",
      "type": "function"
    },
    {
      "inputs": [],
      "name": "antibot",
      "outputs": [
        {
          "internalType": "bool",
          "name": "",
          "type": "bool"
        }
      ],
      "stateMutability": "view",
      "type": "function"
    },
    {
      "inputs": [
        {
          "internalType": "address",
          "name": "spender",
          "type": "address"
        },
        {
          "internalType": "uint256",
          "name": "amount",
          "type": "uint256"
        }
      ],
      "name": "approve",
      "outputs": [
        {
          "internalType": "bool",
          "name": "",
          "type": "bool"
        }
      ],
      "stateMutability": "nonpayable",
      "type": "function"
    },
    {
      "inputs": [
        {
          "internalType": "address",
          "name": "account",
          "type": "address"
        }
      ],
      "name": "balanceOf",
      "outputs": [
        {
          "internalType": "uint256",
          "name": "",
          "type": "uint256"
        }
      ],
      "stateMutability": "view",
      "type": "function"
    },
    {
      "inputs": [
        {
          "internalType": "address",
          "name": "spender",
          "type": "address"
        },
        {
          "internalType": "uint256",
          "name": "subtractedValue",
          "type": "uint256"
        }
      ],
      "name": "decreaseAllowance",
      "outputs": [
        {
          "internalType": "bool",
          "name": "",
          "type": "bool"
        }
      ],
      "stateMutability": "nonpayable",
      "type": "function"
    },
    {
      "inputs": [],
      "name": "endTime",
      "outputs": [
        {
          "internalType": "uint112",
          "name": "",
          "type": "uint112"
        }
      ],
      "stateMutability": "view",
      "type": "function"
    },
    {
      "inputs": [
        {
          "internalType": "address",
          "name": "spender",
          "type": "address"
        },
        {
          "internalType": "uint256",
          "name": "addedValue",
          "type": "uint256"
        }
      ],
      "name": "increaseAllowance",
      "outputs": [
        {
          "internalType": "bool",
          "name": "",
          "type": "bool"
        }
      ],
      "stateMutability": "nonpayable",
      "type": "function"
    },
    {
      "inputs": [],
      "name": "initialSupply",
      "outputs": [
        {
          "internalType": "uint256",
          "name": "",
          "type": "uint256"
        }
      ],
      "stateMutability": "view",
      "type": "function"
    },
    {
      "inputs": [],
      "name": "name",
      "outputs": [
        {
          "internalType": "string",
          "name": "",
          "type": "string"
        }
      ],
      "stateMutability": "view",
      "type": "function"
    },
    {
      "inputs": [],
      "name": "owner",
      "outputs": [
        {
          "internalType": "address",
          "name": "",
          "type": "address"
        }
      ],
      "stateMutability": "view",
      "type": "function"
    },
    {
      "inputs": [],
      "name": "renounceOwnership",
      "outputs": [],
      "stateMutability": "nonpayable",
      "type": "function"
    },
    {
      "inputs": [],
      "name": "startTime",
      "outputs": [
        {
          "internalType": "uint112",
          "name": "",
          "type": "uint112"
        }
      ],
      "stateMutability": "view",
      "type": "function"
    },
    {
      "inputs": [],
      "name": "symbol",
      "outputs": [
        {
          "internalType": "string",
          "name": "",
          "type": "string"
        }
      ],
      "stateMutability": "view",
      "type": "function"
    },
    {
      "inputs": [],
      "name": "tokenPrice",
      "outputs": [
        {
          "internalType": "uint256",
          "name": "",
          "type": "uint256"
        }
      ],
      "stateMutability": "view",
      "type": "function"
    },
    {
      "inputs": [],
      "name": "totalSupply",
      "outputs": [
        {
          "internalType": "uint256",
          "name": "",
          "type": "uint256"
        }
      ],
      "stateMutability": "view",
      "type": "function"
    },
    {
      "inputs": [
        {
          "internalType": "address",
          "name": "to",
          "type": "address"
        },
        {
          "internalType": "uint256",
          "name": "amount",
          "type": "uint256"
        }
      ],
      "name": "transfer",
      "outputs": [
        {
          "internalType": "bool",
          "name": "",
          "type": "bool"
        }
      ],
      "stateMutability": "nonpayable",
      "type": "function"
    },
    {
      "inputs": [
        {
          "internalType": "address",
          "name": "from",
          "type": "address"
        },
        {
          "internalType": "address",
          "name": "to",
          "type": "address"
        },
        {
          "internalType": "uint256",
          "name": "amount",
          "type": "uint256"
        }
      ],
      "name": "transferFrom",
      "outputs": [
        {
          "internalType": "bool",
          "name": "",
          "type": "bool"
        }
      ],
      "stateMutability": "nonpayable",
      "type": "function"
    },
    {
      "inputs": [
        {
          "internalType": "address",
          "name": "newOwner",
          "type": "address"
        }
      ],
      "name": "transferOwnership",
      "outputs": [],
      "stateMutability": "nonpayable",
      "type": "function"
    },
    {
      "inputs": [],
      "name": "decimals",
      "outputs": [
        {
          "internalType": "uint8",
          "name": "",
          "type": "uint8"
        }
      ],
      "stateMutability": "view",
      "type": "function"
    },
    {
      "inputs": [],
      "name": "buyToken",
      "outputs": [
        {
          "internalType": "bool",
          "name": "",
          "type": "bool"
        }
      ],
      "stateMutability": "payable",
      "type": "function"
    },
    {
      "inputs": [
        {
          "internalType": "bool",
          "name": "_newState",
          "type": "bool"
        }
      ],
      "name": "setAntibot",
      "outputs": [],
      "stateMutability": "nonpayable",
      "type": "function"
    }
  ],
  "bytecode": "0x60806040523480156200001157600080fd5b50604051620028ad380380620028ad8339818101604052810190620000379190620006f8565b8787816003908051906020019062000051929190620003aa565b5080600490805190602001906200006a929190620003aa565b5050506200008d620000816200015a60201b60201c565b6200016260201b60201c565b856008601d6101000a81548160ff021916908360ff160217905550836006819055508460078190555082600860006101000a81548160ff02191690831515021790555081600860016101000a8154816dffffffffffffffffffffffffffff02191690836dffffffffffffffffffffffffffff160217905550806008600f6101000a8154816dffffffffffffffffffffffffffff02191690836dffffffffffffffffffffffffffff1602179055506200014c33866200022860201b60201c565b5050505050505050620009a0565b600033905090565b6000600560009054906101000a900473ffffffffffffffffffffffffffffffffffffffff16905081600560006101000a81548173ffffffffffffffffffffffffffffffffffffffff021916908373ffffffffffffffffffffffffffffffffffffffff1602179055508173ffffffffffffffffffffffffffffffffffffffff168173ffffffffffffffffffffffffffffffffffffffff167f8be0079c531659141344cd1fd0a4f28419497f9722a3daafe3b4186f6b6457e060405160405180910390a35050565b600073ffffffffffffffffffffffffffffffffffffffff168273ffffffffffffffffffffffffffffffffffffffff16036200029a576040517f08c379a0000000000000000000000000000000000000000000000000000000008152600401620002919062000860565b60405180910390fd5b620002ae60008383620003a060201b60201c565b8060026000828254620002c29190620008b1565b92505081905550806000808473ffffffffffffffffffffffffffffffffffffffff1673ffffffffffffffffffffffffffffffffffffffff1681526020019081526020016000206000828254620003199190620008b1565b925050819055508173ffffffffffffffffffffffffffffffffffffffff16600073ffffffffffffffffffffffffffffffffffffffff167fddf252ad1be2c89b69c2b068fc378daa952ba7f163c4a11628f55a4df523b3ef836040516200038091906200091f565b60405180910390a36200039c60008383620003a560201b60201c565b5050565b505050565b505050565b828054620003b8906200096b565b90600052602060002090601f016020900481019282620003dc576000855562000428565b82601f10620003f757805160ff191683800117855562000428565b8280016001018555821562000428579182015b82811115620004275782518255916020019190600101906200040a565b5b5090506200043791906200043b565b5090565b5b80821115620004565760008160009055506001016200043c565b5090565b6000604051905090565b600080fd5b600080fd5b600080fd5b600080fd5b6000601f19601f8301169050919050565b7f4e487b7100000000000000000000000000000000000000000000000000000000600052604160045260246000fd5b620004c38262000478565b810181811067ffffffffffffffff82111715620004e557620004e462000489565b5b80604052505050565b6000620004fa6200045a565b9050620005088282620004b8565b919050565b600067ffffffffffffffff8211156200052b576200052a62000489565b5b620005368262000478565b9050602081019050919050565b60005b838110156200056357808201518184015260208101905062000546565b8381111562000573576000848401525b50505050565b6000620005906200058a846200050d565b620004ee565b905082815260208101848484011115620005af57620005ae62000473565b5b620005bc84828562000543565b509392505050565b600082601f830112620005dc57620005db6200046e565b5b8151620005ee84826020860162000579565b91505092915050565b600060ff82169050919050565b6200060f81620005f7565b81146200061b57600080fd5b50565b6000815190506200062f8162000604565b92915050565b6000819050919050565b6200064a8162000635565b81146200065657600080fd5b50565b6000815190506200066a816200063f565b92915050565b60008115159050919050565b620006878162000670565b81146200069357600080fd5b50565b600081519050620006a7816200067c565b92915050565b60006dffffffffffffffffffffffffffff82169050919050565b620006d281620006ad565b8114620006de57600080fd5b50565b600081519050620006f281620006c7565b92915050565b600080600080600080600080610100898b0312156200071c576200071b62000464565b5b600089015167ffffffffffffffff8111156200073d576200073c62000469565b5b6200074b8b828c01620005c4565b985050602089015167ffffffffffffffff8111156200076f576200076e62000469565b5b6200077d8b828c01620005c4565b9750506040620007908b828c016200061e565b9650506060620007a38b828c0162000659565b9550506080620007b68b828c0162000659565b94505060a0620007c98b828c0162000696565b93505060c0620007dc8b828c01620006e1565b92505060e0620007ef8b828c01620006e1565b9150509295985092959890939650565b600082825260208201905092915050565b7f45524332303a206d696e7420746f20746865207a65726f206164647265737300600082015250565b600062000848601f83620007ff565b9150620008558262000810565b602082019050919050565b600060208201905081810360008301526200087b8162000839565b9050919050565b7f4e487b7100000000000000000000000000000000000000000000000000000000600052601160045260246000fd5b6000620008be8262000635565b9150620008cb8362000635565b9250827fffffffffffffffffffffffffffffffffffffffffffffffffffffffffffffffff0382111562000903576200090262000882565b5b828201905092915050565b620009198162000635565b82525050565b60006020820190506200093660008301846200090e565b92915050565b7f4e487b7100000000000000000000000000000000000000000000000000000000600052602260045260246000fd5b600060028204905060018216806200098457607f821691505b6020821081036200099a57620009996200093c565b5b50919050565b611efd80620009b06000396000f3fe60806040526004361061012a5760003560e01c8063715018a6116100ab578063a457c2d71161006f578063a457c2d7146103e8578063a482171914610425578063a9059cbb14610443578063dd62ed3e14610480578063e71804cd146104bd578063f2fde38b146104e65761012a565b8063715018a61461032557806378e979251461033c5780637ff9b596146103675780638da5cb5b1461039257806395d89b41146103bd5761012a565b8063313ce567116100f2578063313ce5671461022a5780633197cbb614610255578063378dc3dc1461028057806339509351146102ab57806370a08231146102e85761012a565b806306fdde031461012f578063095ea7b31461015a57806318160ddd1461019757806323b872dd146101c2578063305c4c80146101ff575b600080fd5b34801561013b57600080fd5b5061014461050f565b604051610151919061140a565b60405180910390f35b34801561016657600080fd5b50610181600480360381019061017c91906114c5565b6105a1565b60405161018e9190611520565b60405180910390f35b3480156101a357600080fd5b506101ac6105c4565b6040516101b9919061154a565b60405180910390f35b3480156101ce57600080fd5b506101e960048036038101906101e49190611565565b6105ce565b6040516101f69190611520565b60405180910390f35b34801561020b57600080fd5b506102146105fd565b6040516102219190611520565b60405180910390f35b34801561023657600080fd5b5061023f610610565b60405161024c91906115d4565b60405180910390f35b34801561026157600080fd5b5061026a610627565b6040516102779190611618565b60405180910390f35b34801561028c57600080fd5b50610295610647565b6040516102a2919061154a565b60405180910390f35b3480156102b757600080fd5b506102d260048036038101906102cd91906114c5565b61064d565b6040516102df9190611520565b60405180910390f35b3480156102f457600080fd5b5061030f600480360381019061030a9190611633565b610684565b60405161031c919061154a565b60405180910390f35b34801561033157600080fd5b5061033a6106cc565b005b34801561034857600080fd5b50610351610754565b60405161035e9190611618565b60405180910390f35b34801561037357600080fd5b5061037c610774565b604051610389919061154a565b60405180910390f35b34801561039e57600080fd5b506103a761077a565b6040516103b4919061166f565b60405180910390f35b3480156103c957600080fd5b506103d26107a4565b6040516103df919061140a565b60405180910390f35b3480156103f457600080fd5b5061040f600480360381019061040a91906114c5565b610836565b60405161041c9190611520565b60405180910390f35b61042d6108ad565b60405161043a9190611520565b60405180910390f35b34801561044f57600080fd5b5061046a600480360381019061046591906114c5565b610a2c565b6040516104779190611520565b60405180910390f35b34801561048c57600080fd5b506104a760048036038101906104a2919061168a565b610a4f565b6040516104b4919061154a565b60405180910390f35b3480156104c957600080fd5b506104e460048036038101906104df91906116f6565b610ad6565b005b3480156104f257600080fd5b5061050d60048036038101906105089190611633565b610b6f565b005b60606003805461051e90611752565b80601f016020809104026020016040519081016040528092919081815260200182805461054a90611752565b80156105975780601f1061056c57610100808354040283529160200191610597565b820191906000526020600020905b81548152906001019060200180831161057a57829003601f168201915b5050505050905090565b6000806105ac610c66565b90506105b9818585610c6e565b600191505092915050565b6000600254905090565b6000806105d9610c66565b90506105e6858285610e37565b6105f1858585610ec3565b60019150509392505050565b600860009054906101000a900460ff1681565b60006008601d9054906101000a900460ff16905090565b6008600f9054906101000a90046dffffffffffffffffffffffffffff1681565b60075481565b600080610658610c66565b905061067981858561066a8589610a4f565b61067491906117b2565b610c6e565b600191505092915050565b60008060008373ffffffffffffffffffffffffffffffffffffffff1673ffffffffffffffffffffffffffffffffffffffff168152602001908152602001600020549050919050565b6106d4610c66565b73ffffffffffffffffffffffffffffffffffffffff166106f261077a565b73ffffffffffffffffffffffffffffffffffffffff1614610748576040517f08c379a000000000000000000000000000000000000000000000000000000000815260040161073f90611854565b60405180910390fd5b6107526000611142565b565b600860019054906101000a90046dffffffffffffffffffffffffffff1681565b60065481565b6000600560009054906101000a900473ffffffffffffffffffffffffffffffffffffffff16905090565b6060600480546107b390611752565b80601f01602080910402602001604051908101604052809291908181526020018280546107df90611752565b801561082c5780601f106108015761010080835404028352916020019161082c565b820191906000526020600020905b81548152906001019060200180831161080f57829003601f168201915b5050505050905090565b600080610841610c66565b9050600061084f8286610a4f565b905083811015610894576040517f08c379a000000000000000000000000000000000000000000000000000000000815260040161088b906118e6565b60405180910390fd5b6108a18286868403610c6e565b60019250505092915050565b6000600860009054906101000a900460ff16156109265767016345785d8a00003373ffffffffffffffffffffffffffffffffffffffff163111610925576040517f08c379a000000000000000000000000000000000000000000000000000000000815260040161091c90611952565b60405180910390fd5b5b600860019054906101000a90046dffffffffffffffffffffffffffff166dffffffffffffffffffffffffffff164211801561098c57506008600f9054906101000a90046dffffffffffffffffffffffffffff166dffffffffffffffffffffffffffff1642105b6109cb576040517f08c379a00000000000000000000000000000000000000000000000000000000081526004016109c2906119be565b60405180910390fd5b6000600654346109db9190611a0d565b90506109e73382611208565b7f047d414ddce29eba94711e9709b1446c3bb9339c2472cf6ff20610f80b18691233348342604051610a1c9493929190611a3e565b60405180910390a1600191505090565b600080610a37610c66565b9050610a44818585610ec3565b600191505092915050565b6000600160008473ffffffffffffffffffffffffffffffffffffffff1673ffffffffffffffffffffffffffffffffffffffff16815260200190815260200160002060008373ffffffffffffffffffffffffffffffffffffffff1673ffffffffffffffffffffffffffffffffffffffff16815260200190815260200160002054905092915050565b610ade610c66565b73ffffffffffffffffffffffffffffffffffffffff16610afc61077a565b73ffffffffffffffffffffffffffffffffffffffff1614610b52576040517f08c379a0000000000000000000000000000000000000000000000000000000008152600401610b4990611854565b60405180910390fd5b80600860006101000a81548160ff02191690831515021790555050565b610b77610c66565b73ffffffffffffffffffffffffffffffffffffffff16610b9561077a565b73ffffffffffffffffffffffffffffffffffffffff1614610beb576040517f08c379a0000000000000000000000000000000000000000000000000000000008152600401610be290611854565b60405180910390fd5b600073ffffffffffffffffffffffffffffffffffffffff168173ffffffffffffffffffffffffffffffffffffffff1603610c5a576040517f08c379a0000000000000000000000000000000000000000000000000000000008152600401610c5190611af5565b60405180910390fd5b610c6381611142565b50565b600033905090565b600073ffffffffffffffffffffffffffffffffffffffff168373ffffffffffffffffffffffffffffffffffffffff1603610cdd576040517f08c379a0000000000000000000000000000000000000000000000000000000008152600401610cd490611b87565b60405180910390fd5b600073ffffffffffffffffffffffffffffffffffffffff168273ffffffffffffffffffffffffffffffffffffffff1603610d4c576040517f08c379a0000000000000000000000000000000000000000000000000000000008152600401610d4390611c19565b60405180910390fd5b80600160008573ffffffffffffffffffffffffffffffffffffffff1673ffffffffffffffffffffffffffffffffffffffff16815260200190815260200160002060008473ffffffffffffffffffffffffffffffffffffffff1673ffffffffffffffffffffffffffffffffffffffff168152602001908152602001600020819055508173ffffffffffffffffffffffffffffffffffffffff168373ffffffffffffffffffffffffffffffffffffffff167f8c5be1e5ebec7d5bd14f71427d1e84f3dd0314c0f7b2291e5b200ac8c7c3b92583604051610e2a919061154a565b60405180910390a3505050565b6000610e438484610a4f565b90507fffffffffffffffffffffffffffffffffffffffffffffffffffffffffffffffff8114610ebd5781811015610eaf576040517f08c379a0000000000000000000000000000000000000000000000000000000008152600401610ea690611c85565b60405180910390fd5b610ebc8484848403610c6e565b5b50505050565b600073ffffffffffffffffffffffffffffffffffffffff168373ffffffffffffffffffffffffffffffffffffffff1603610f32576040517f08c379a0000000000000000000000000000000000000000000000000000000008152600401610f2990611d17565b60405180910390fd5b600073ffffffffffffffffffffffffffffffffffffffff168273ffffffffffffffffffffffffffffffffffffffff1603610fa1576040517f08c379a0000000000000000000000000000000000000000000000000000000008152600401610f9890611da9565b60405180910390fd5b610fac838383611367565b60008060008573ffffffffffffffffffffffffffffffffffffffff1673ffffffffffffffffffffffffffffffffffffffff16815260200190815260200160002054905081811015611032576040517f08c379a000000000000000000000000000000000000000000000000000000000815260040161102990611e3b565b60405180910390fd5b8181036000808673ffffffffffffffffffffffffffffffffffffffff1673ffffffffffffffffffffffffffffffffffffffff16815260200190815260200160002081905550816000808573ffffffffffffffffffffffffffffffffffffffff1673ffffffffffffffffffffffffffffffffffffffff16815260200190815260200160002060008282546110c591906117b2565b925050819055508273ffffffffffffffffffffffffffffffffffffffff168473ffffffffffffffffffffffffffffffffffffffff167fddf252ad1be2c89b69c2b068fc378daa952ba7f163c4a11628f55a4df523b3ef84604051611129919061154a565b60405180910390a361113c84848461136c565b50505050565b6000600560009054906101000a900473ffffffffffffffffffffffffffffffffffffffff16905081600560006101000a81548173ffffffffffffffffffffffffffffffffffffffff021916908373ffffffffffffffffffffffffffffffffffffffff1602179055508173ffffffffffffffffffffffffffffffffffffffff168173ffffffffffffffffffffffffffffffffffffffff167f8be0079c531659141344cd1fd0a4f28419497f9722a3daafe3b4186f6b6457e060405160405180910390a35050565b600073ffffffffffffffffffffffffffffffffffffffff168273ffffffffffffffffffffffffffffffffffffffff1603611277576040517f08c379a000000000000000000000000000000000000000000000000000000000815260040161126e90611ea7565b60405180910390fd5b61128360008383611367565b806002600082825461129591906117b2565b92505081905550806000808473ffffffffffffffffffffffffffffffffffffffff1673ffffffffffffffffffffffffffffffffffffffff16815260200190815260200160002060008282546112ea91906117b2565b925050819055508173ffffffffffffffffffffffffffffffffffffffff16600073ffffffffffffffffffffffffffffffffffffffff167fddf252ad1be2c89b69c2b068fc378daa952ba7f163c4a11628f55a4df523b3ef8360405161134f919061154a565b60405180910390a36113636000838361136c565b5050565b505050565b505050565b600081519050919050565b600082825260208201905092915050565b60005b838110156113ab578082015181840152602081019050611390565b838111156113ba576000848401525b50505050565b6000601f19601f8301169050919050565b60006113dc82611371565b6113e6818561137c565b93506113f681856020860161138d565b6113ff816113c0565b840191505092915050565b6000602082019050818103600083015261142481846113d1565b905092915050565b600080fd5b600073ffffffffffffffffffffffffffffffffffffffff82169050919050565b600061145c82611431565b9050919050565b61146c81611451565b811461147757600080fd5b50565b60008135905061148981611463565b92915050565b6000819050919050565b6114a28161148f565b81146114ad57600080fd5b50565b6000813590506114bf81611499565b92915050565b600080604083850312156114dc576114db61142c565b5b60006114ea8582860161147a565b92505060206114fb858286016114b0565b9150509250929050565b60008115159050919050565b61151a81611505565b82525050565b60006020820190506115356000830184611511565b92915050565b6115448161148f565b82525050565b600060208201905061155f600083018461153b565b92915050565b60008060006060848603121561157e5761157d61142c565b5b600061158c8682870161147a565b935050602061159d8682870161147a565b92505060406115ae868287016114b0565b9150509250925092565b600060ff82169050919050565b6115ce816115b8565b82525050565b60006020820190506115e960008301846115c5565b92915050565b60006dffffffffffffffffffffffffffff82169050919050565b611612816115ef565b82525050565b600060208201905061162d6000830184611609565b92915050565b6000602082840312156116495761164861142c565b5b60006116578482850161147a565b91505092915050565b61166981611451565b82525050565b60006020820190506116846000830184611660565b92915050565b600080604083850312156116a1576116a061142c565b5b60006116af8582860161147a565b92505060206116c08582860161147a565b9150509250929050565b6116d381611505565b81146116de57600080fd5b50565b6000813590506116f0816116ca565b92915050565b60006020828403121561170c5761170b61142c565b5b600061171a848285016116e1565b91505092915050565b7f4e487b7100000000000000000000000000000000000000000000000000000000600052602260045260246000fd5b6000600282049050600182168061176a57607f821691505b60208210810361177d5761177c611723565b5b50919050565b7f4e487b7100000000000000000000000000000000000000000000000000000000600052601160045260246000fd5b60006117bd8261148f565b91506117c88361148f565b9250827fffffffffffffffffffffffffffffffffffffffffffffffffffffffffffffffff038211156117fd576117fc611783565b5b828201905092915050565b7f4f776e61626c653a2063616c6c6572206973206e6f7420746865206f776e6572600082015250565b600061183e60208361137c565b915061184982611808565b602082019050919050565b6000602082019050818103600083015261186d81611831565b9050919050565b7f45524332303a2064656372656173656420616c6c6f77616e63652062656c6f7760008201527f207a65726f000000000000000000000000000000000000000000000000000000602082015250565b60006118d060258361137c565b91506118db82611874565b604082019050919050565b600060208201905081810360008301526118ff816118c3565b9050919050565b7f42616c616e6365732073686f756c64206d6f7265207468616e20302e31000000600082015250565b600061193c601d8361137c565b915061194782611906565b602082019050919050565b6000602082019050818103600083015261196b8161192f565b9050919050565b7f45697468657220656e646564206f72206e6f7420737461727465642079657400600082015250565b60006119a8601f8361137c565b91506119b382611972565b602082019050919050565b600060208201905081810360008301526119d78161199b565b9050919050565b7f4e487b7100000000000000000000000000000000000000000000000000000000600052601260045260246000fd5b6000611a188261148f565b9150611a238361148f565b925082611a3357611a326119de565b5b828204905092915050565b6000608082019050611a536000830187611660565b611a60602083018661153b565b611a6d604083018561153b565b611a7a606083018461153b565b95945050505050565b7f4f776e61626c653a206e6577206f776e657220697320746865207a65726f206160008201527f6464726573730000000000000000000000000000000000000000000000000000602082015250565b6000611adf60268361137c565b9150611aea82611a83565b604082019050919050565b60006020820190508181036000830152611b0e81611ad2565b9050919050565b7f45524332303a20617070726f76652066726f6d20746865207a65726f2061646460008201527f7265737300000000000000000000000000000000000000000000000000000000602082015250565b6000611b7160248361137c565b9150611b7c82611b15565b604082019050919050565b60006020820190508181036000830152611ba081611b64565b9050919050565b7f45524332303a20617070726f766520746f20746865207a65726f20616464726560008201527f7373000000000000000000000000000000000000000000000000000000000000602082015250565b6000611c0360228361137c565b9150611c0e82611ba7565b604082019050919050565b60006020820190508181036000830152611c3281611bf6565b9050919050565b7f45524332303a20696e73756666696369656e7420616c6c6f77616e6365000000600082015250565b6000611c6f601d8361137c565b9150611c7a82611c39565b602082019050919050565b60006020820190508181036000830152611c9e81611c62565b9050919050565b7f45524332303a207472616e736665722066726f6d20746865207a65726f20616460008201527f6472657373000000000000000000000000000000000000000000000000000000602082015250565b6000611d0160258361137c565b9150611d0c82611ca5565b604082019050919050565b60006020820190508181036000830152611d3081611cf4565b9050919050565b7f45524332303a207472616e7366657220746f20746865207a65726f206164647260008201527f6573730000000000000000000000000000000000000000000000000000000000602082015250565b6000611d9360238361137c565b9150611d9e82611d37565b604082019050919050565b60006020820190508181036000830152611dc281611d86565b9050919050565b7f45524332303a207472616e7366657220616d6f756e742065786365656473206260008201527f616c616e63650000000000000000000000000000000000000000000000000000602082015250565b6000611e2560268361137c565b9150611e3082611dc9565b604082019050919050565b60006020820190508181036000830152611e5481611e18565b9050919050565b7f45524332303a206d696e7420746f20746865207a65726f206164647265737300600082015250565b6000611e91601f8361137c565b9150611e9c82611e5b565b602082019050919050565b60006020820190508181036000830152611ec081611e84565b905091905056fea2646970667358221220bc784bab4c1c158260e1868946fe7e437599eea48c6c6cacdee50ec00de1df3a64736f6c634300080d0033",
  "immutableReferences": {},
  "source": "// SPDX-License-Identifier: UNLICENSED\r\npragma solidity 0.8.13;\r\n\r\n\r\nimport \"openzeppelin-solidity/contracts/token/ERC20/ERC20.sol\";\r\nimport \"openzeppelin-solidity/contracts/access/Ownable.sol\";\r\n\r\ncontract ERC20Mintable is ERC20, Ownable {\r\n  uint256 public tokenPrice;\r\n  uint256 public initialSupply;\r\n  bool public antibot;\r\n  \r\n  uint112 public startTime;\r\n  uint112 public endTime;\r\n  uint8 private _decimals;\r\n\r\n  event BuyToken(address to, uint256 ethAmount, uint256 tokenAmount, uint256 timestamp);\r\n\r\n  constructor(string memory _name, string memory _symbol, uint8 decimals_, uint256 _initialSupply, uint256 _tokenPrice, bool _antibot, uint112 _startTime, uint112 _endTime) ERC20(_name, _symbol) {\r\n    _decimals = decimals_;\r\n    tokenPrice = _tokenPrice;\r\n    initialSupply = _initialSupply;\r\n    antibot = _antibot;\r\n    startTime = _startTime;\r\n    endTime = _endTime;\r\n    _mint(msg.sender, _initialSupply);\r\n  }\r\n\r\n  function decimals() public view virtual override returns (uint8) {\r\n    return _decimals;\r\n  }\r\n\r\n  function buyToken() public payable returns(bool) {\r\n    if(antibot){\r\n      require(address(msg.sender).balance > 0.1 ether, \"Balances should more than 0.1\");\r\n    }\r\n    require(block.timestamp> startTime && block.timestamp < endTime, \"Either ended or not started yet\");\r\n    uint256 amount = msg.value/tokenPrice;\r\n    _mint(msg.sender, amount);\r\n    emit BuyToken(msg.sender, msg.value, amount, block.timestamp);\r\n    return true;\r\n  }\r\n\r\n  function setAntibot(bool _newState) external onlyOwner {\r\n    antibot = _newState;\r\n  }\r\n}",
  "sourcePath": "C:\\Users\\JSON-BSON\\Documents\\blockboyBenji\\Launchpad\\main-template\\contracts\\contracts\\ERC20Mintable.sol",
  "compiler": {
    "name": "solc",
    "version": "0.8.13+commit.abaa5c0e.Emscripten.clang"
  },
  "schemaVersion": "3.4.7",
  "updatedAt": "2022-11-03T17:14:05.563Z",
  "devdoc": {
    "kind": "dev",
    "methods": {
      "allowance(address,address)": {
        "details": "See {IERC20-allowance}."
      },
      "approve(address,uint256)": {
        "details": "See {IERC20-approve}. NOTE: If `amount` is the maximum `uint256`, the allowance is not updated on `transferFrom`. This is semantically equivalent to an infinite approval. Requirements: - `spender` cannot be the zero address."
      },
      "balanceOf(address)": {
        "details": "See {IERC20-balanceOf}."
      },
      "decimals()": {
        "details": "Returns the number of decimals used to get its user representation. For example, if `decimals` equals `2`, a balance of `505` tokens should be displayed to a user as `5.05` (`505 / 10 ** 2`). Tokens usually opt for a value of 18, imitating the relationship between Ether and Wei. This is the value {ERC20} uses, unless this function is overridden; NOTE: This information is only used for _display_ purposes: it in no way affects any of the arithmetic of the contract, including {IERC20-balanceOf} and {IERC20-transfer}."
      },
      "decreaseAllowance(address,uint256)": {
        "details": "Atomically decreases the allowance granted to `spender` by the caller. This is an alternative to {approve} that can be used as a mitigation for problems described in {IERC20-approve}. Emits an {Approval} event indicating the updated allowance. Requirements: - `spender` cannot be the zero address. - `spender` must have allowance for the caller of at least `subtractedValue`."
      },
      "increaseAllowance(address,uint256)": {
        "details": "Atomically increases the allowance granted to `spender` by the caller. This is an alternative to {approve} that can be used as a mitigation for problems described in {IERC20-approve}. Emits an {Approval} event indicating the updated allowance. Requirements: - `spender` cannot be the zero address."
      },
      "name()": {
        "details": "Returns the name of the token."
      },
      "owner()": {
        "details": "Returns the address of the current owner."
      },
      "renounceOwnership()": {
        "details": "Leaves the contract without owner. It will not be possible to call `onlyOwner` functions anymore. Can only be called by the current owner. NOTE: Renouncing ownership will leave the contract without an owner, thereby removing any functionality that is only available to the owner."
      },
      "symbol()": {
        "details": "Returns the symbol of the token, usually a shorter version of the name."
      },
      "totalSupply()": {
        "details": "See {IERC20-totalSupply}."
      },
      "transfer(address,uint256)": {
        "details": "See {IERC20-transfer}. Requirements: - `to` cannot be the zero address. - the caller must have a balance of at least `amount`."
      },
      "transferFrom(address,address,uint256)": {
        "details": "See {IERC20-transferFrom}. Emits an {Approval} event indicating the updated allowance. This is not required by the EIP. See the note at the beginning of {ERC20}. NOTE: Does not update the allowance if the current allowance is the maximum `uint256`. Requirements: - `from` and `to` cannot be the zero address. - `from` must have a balance of at least `amount`. - the caller must have allowance for ``from``'s tokens of at least `amount`."
      },
      "transferOwnership(address)": {
        "details": "Transfers ownership of the contract to a new account (`newOwner`). Can only be called by the current owner."
      }
    },
    "version": 1
  },
  "userdoc": {
    "kind": "user",
    "methods": {},
    "version": 1
  }
}