{
  "contractName": "NftQueryable",
  "abi": [
    {
      "inputs": [
        {
          "internalType": "string",
          "name": "_name",
          "type": "string"
        },
        {
          "internalType": "string",
          "name": "_symbol",
          "type": "string"
        },
        {
          "internalType": "string",
          "name": "baseUri_",
          "type": "string"
        },
        {
          "internalType": "uint112",
          "name": "_nftPrice",
          "type": "uint112"
        },
        {
          "internalType": "uint112",
          "name": "_maxSupply",
          "type": "uint112"
        },
        {
          "internalType": "bool",
          "name": "_antibot",
          "type": "bool"
        },
        {
          "internalType": "uint112",
          "name": "_startTime",
          "type": "uint112"
        },
        {
          "internalType": "uint112",
          "name": "_endTime",
          "type": "uint112"
        }
      ],
      "stateMutability": "nonpayable",
      "type": "constructor"
    },
    {
      "inputs": [],
      "name": "ApprovalCallerNotOwnerNorApproved",
      "type": "error"
    },
    {
      "inputs": [],
      "name": "ApprovalQueryForNonexistentToken",
      "type": "error"
    },
    {
      "inputs": [],
      "name": "BalanceQueryForZeroAddress",
      "type": "error"
    },
    {
      "inputs": [],
      "name": "InvalidQueryRange",
      "type": "error"
    },
    {
      "inputs": [],
      "name": "MintERC2309QuantityExceedsLimit",
      "type": "error"
    },
    {
      "inputs": [],
      "name": "MintToZeroAddress",
      "type": "error"
    },
    {
      "inputs": [],
      "name": "MintZeroQuantity",
      "type": "error"
    },
    {
      "inputs": [],
      "name": "OwnerQueryForNonexistentToken",
      "type": "error"
    },
    {
      "inputs": [],
      "name": "OwnershipNotInitializedForExtraData",
      "type": "error"
    },
    {
      "inputs": [],
      "name": "TransferCallerNotOwnerNorApproved",
      "type": "error"
    },
    {
      "inputs": [],
      "name": "TransferFromIncorrectOwner",
      "type": "error"
    },
    {
      "inputs": [],
      "name": "TransferToNonERC721ReceiverImplementer",
      "type": "error"
    },
    {
      "inputs": [],
      "name": "TransferToZeroAddress",
      "type": "error"
    },
    {
      "inputs": [],
      "name": "URIQueryForNonexistentToken",
      "type": "error"
    },
    {
      "anonymous": false,
      "inputs": [
        {
          "indexed": true,
          "internalType": "address",
          "name": "owner",
          "type": "address"
        },
        {
          "indexed": true,
          "internalType": "address",
          "name": "approved",
          "type": "address"
        },
        {
          "indexed": true,
          "internalType": "uint256",
          "name": "tokenId",
          "type": "uint256"
        }
      ],
      "name": "Approval",
      "type": "event"
    },
    {
      "anonymous": false,
      "inputs": [
        {
          "indexed": true,
          "internalType": "address",
          "name": "owner",
          "type": "address"
        },
        {
          "indexed": true,
          "internalType": "address",
          "name": "operator",
          "type": "address"
        },
        {
          "indexed": false,
          "internalType": "bool",
          "name": "approved",
          "type": "bool"
        }
      ],
      "name": "ApprovalForAll",
      "type": "event"
    },
    {
      "anonymous": false,
      "inputs": [
        {
          "indexed": false,
          "internalType": "address",
          "name": "to",
          "type": "address"
        },
        {
          "indexed": false,
          "internalType": "uint256",
          "name": "ethAmount",
          "type": "uint256"
        },
        {
          "indexed": false,
          "internalType": "uint256",
          "name": "quantity",
          "type": "uint256"
        },
        {
          "indexed": false,
          "internalType": "uint256",
          "name": "timestamp",
          "type": "uint256"
        }
      ],
      "name": "BuyNft",
      "type": "event"
    },
    {
      "anonymous": false,
      "inputs": [
        {
          "indexed": true,
          "internalType": "uint256",
          "name": "fromTokenId",
          "type": "uint256"
        },
        {
          "indexed": false,
          "internalType": "uint256",
          "name": "toTokenId",
          "type": "uint256"
        },
        {
          "indexed": true,
          "internalType": "address",
          "name": "from",
          "type": "address"
        },
        {
          "indexed": true,
          "internalType": "address",
          "name": "to",
          "type": "address"
        }
      ],
      "name": "ConsecutiveTransfer",
      "type": "event"
    },
    {
      "anonymous": false,
      "inputs": [
        {
          "indexed": true,
          "internalType": "address",
          "name": "previousOwner",
          "type": "address"
        },
        {
          "indexed": true,
          "internalType": "address",
          "name": "newOwner",
          "type": "address"
        }
      ],
      "name": "OwnershipTransferred",
      "type": "event"
    },
    {
      "anonymous": false,
      "inputs": [
        {
          "indexed": true,
          "internalType": "address",
          "name": "from",
          "type": "address"
        },
        {
          "indexed": true,
          "internalType": "address",
          "name": "to",
          "type": "address"
        },
        {
          "indexed": true,
          "internalType": "uint256",
          "name": "tokenId",
          "type": "uint256"
        }
      ],
      "name": "Transfer",
      "type": "event"
    },
    {
      "inputs": [
        {
          "internalType": "address",
          "name": "to",
          "type": "address"
        },
        {
          "internalType": "uint256",
          "name": "tokenId",
          "type": "uint256"
        }
      ],
      "name": "approve",
      "outputs": [],
      "stateMutability": "payable",
      "type": "function"
    },
    {
      "inputs": [
        {
          "internalType": "address",
          "name": "owner",
          "type": "address"
        }
      ],
      "name": "balanceOf",
      "outputs": [
        {
          "internalType": "uint256",
          "name": "",
          "type": "uint256"
        }
      ],
      "stateMutability": "view",
      "type": "function"
    },
    {
      "inputs": [
        {
          "internalType": "uint256",
          "name": "tokenId",
          "type": "uint256"
        }
      ],
      "name": "explicitOwnershipOf",
      "outputs": [
        {
          "components": [
            {
              "internalType": "address",
              "name": "addr",
              "type": "address"
            },
            {
              "internalType": "uint64",
              "name": "startTimestamp",
              "type": "uint64"
            },
            {
              "internalType": "bool",
              "name": "burned",
              "type": "bool"
            },
            {
              "internalType": "uint24",
              "name": "extraData",
              "type": "uint24"
            }
          ],
          "internalType": "struct IERC721A.TokenOwnership",
          "name": "",
          "type": "tuple"
        }
      ],
      "stateMutability": "view",
      "type": "function"
    },
    {
      "inputs": [
        {
          "internalType": "uint256[]",
          "name": "tokenIds",
          "type": "uint256[]"
        }
      ],
      "name": "explicitOwnershipsOf",
      "outputs": [
        {
          "components": [
            {
              "internalType": "address",
              "name": "addr",
              "type": "address"
            },
            {
              "internalType": "uint64",
              "name": "startTimestamp",
              "type": "uint64"
            },
            {
              "internalType": "bool",
              "name": "burned",
              "type": "bool"
            },
            {
              "internalType": "uint24",
              "name": "extraData",
              "type": "uint24"
            }
          ],
          "internalType": "struct IERC721A.TokenOwnership[]",
          "name": "",
          "type": "tuple[]"
        }
      ],
      "stateMutability": "view",
      "type": "function"
    },
    {
      "inputs": [
        {
          "internalType": "uint256",
          "name": "tokenId",
          "type": "uint256"
        }
      ],
      "name": "getApproved",
      "outputs": [
        {
          "internalType": "address",
          "name": "",
          "type": "address"
        }
      ],
      "stateMutability": "view",
      "type": "function"
    },
    {
      "inputs": [
        {
          "internalType": "address",
          "name": "owner",
          "type": "address"
        },
        {
          "internalType": "address",
          "name": "operator",
          "type": "address"
        }
      ],
      "name": "isApprovedForAll",
      "outputs": [
        {
          "internalType": "bool",
          "name": "",
          "type": "bool"
        }
      ],
      "stateMutability": "view",
      "type": "function"
    },
    {
      "inputs": [],
      "name": "name",
      "outputs": [
        {
          "internalType": "string",
          "name": "",
          "type": "string"
        }
      ],
      "stateMutability": "view",
      "type": "function"
    },
    {
      "inputs": [],
      "name": "owner",
      "outputs": [
        {
          "internalType": "address",
          "name": "",
          "type": "address"
        }
      ],
      "stateMutability": "view",
      "type": "function"
    },
    {
      "inputs": [
        {
          "internalType": "uint256",
          "name": "tokenId",
          "type": "uint256"
        }
      ],
      "name": "ownerOf",
      "outputs": [
        {
          "internalType": "address",
          "name": "",
          "type": "address"
        }
      ],
      "stateMutability": "view",
      "type": "function"
    },
    {
      "inputs": [],
      "name": "renounceOwnership",
      "outputs": [],
      "stateMutability": "nonpayable",
      "type": "function"
    },
    {
      "inputs": [
        {
          "internalType": "address",
          "name": "from",
          "type": "address"
        },
        {
          "internalType": "address",
          "name": "to",
          "type": "address"
        },
        {
          "internalType": "uint256",
          "name": "tokenId",
          "type": "uint256"
        }
      ],
      "name": "safeTransferFrom",
      "outputs": [],
      "stateMutability": "payable",
      "type": "function"
    },
    {
      "inputs": [
        {
          "internalType": "address",
          "name": "from",
          "type": "address"
        },
        {
          "internalType": "address",
          "name": "to",
          "type": "address"
        },
        {
          "internalType": "uint256",
          "name": "tokenId",
          "type": "uint256"
        },
        {
          "internalType": "bytes",
          "name": "_data",
          "type": "bytes"
        }
      ],
      "name": "safeTransferFrom",
      "outputs": [],
      "stateMutability": "payable",
      "type": "function"
    },
    {
      "inputs": [
        {
          "internalType": "address",
          "name": "operator",
          "type": "address"
        },
        {
          "internalType": "bool",
          "name": "approved",
          "type": "bool"
        }
      ],
      "name": "setApprovalForAll",
      "outputs": [],
      "stateMutability": "nonpayable",
      "type": "function"
    },
    {
      "inputs": [
        {
          "internalType": "bytes4",
          "name": "interfaceId",
          "type": "bytes4"
        }
      ],
      "name": "supportsInterface",
      "outputs": [
        {
          "internalType": "bool",
          "name": "",
          "type": "bool"
        }
      ],
      "stateMutability": "view",
      "type": "function"
    },
    {
      "inputs": [],
      "name": "symbol",
      "outputs": [
        {
          "internalType": "string",
          "name": "",
          "type": "string"
        }
      ],
      "stateMutability": "view",
      "type": "function"
    },
    {
      "inputs": [
        {
          "internalType": "uint256",
          "name": "tokenId",
          "type": "uint256"
        }
      ],
      "name": "tokenURI",
      "outputs": [
        {
          "internalType": "string",
          "name": "",
          "type": "string"
        }
      ],
      "stateMutability": "view",
      "type": "function"
    },
    {
      "inputs": [
        {
          "internalType": "address",
          "name": "owner",
          "type": "address"
        }
      ],
      "name": "tokensOfOwner",
      "outputs": [
        {
          "internalType": "uint256[]",
          "name": "",
          "type": "uint256[]"
        }
      ],
      "stateMutability": "view",
      "type": "function"
    },
    {
      "inputs": [
        {
          "internalType": "address",
          "name": "owner",
          "type": "address"
        },
        {
          "internalType": "uint256",
          "name": "start",
          "type": "uint256"
        },
        {
          "internalType": "uint256",
          "name": "stop",
          "type": "uint256"
        }
      ],
      "name": "tokensOfOwnerIn",
      "outputs": [
        {
          "internalType": "uint256[]",
          "name": "",
          "type": "uint256[]"
        }
      ],
      "stateMutability": "view",
      "type": "function"
    },
    {
      "inputs": [],
      "name": "totalSupply",
      "outputs": [
        {
          "internalType": "uint256",
          "name": "",
          "type": "uint256"
        }
      ],
      "stateMutability": "view",
      "type": "function"
    },
    {
      "inputs": [
        {
          "internalType": "address",
          "name": "from",
          "type": "address"
        },
        {
          "internalType": "address",
          "name": "to",
          "type": "address"
        },
        {
          "internalType": "uint256",
          "name": "tokenId",
          "type": "uint256"
        }
      ],
      "name": "transferFrom",
      "outputs": [],
      "stateMutability": "payable",
      "type": "function"
    },
    {
      "inputs": [
        {
          "internalType": "address",
          "name": "newOwner",
          "type": "address"
        }
      ],
      "name": "transferOwnership",
      "outputs": [],
      "stateMutability": "nonpayable",
      "type": "function"
    },
    {
      "inputs": [
        {
          "internalType": "string",
          "name": "_newUri",
          "type": "string"
        }
      ],
      "name": "setBaseUri",
      "outputs": [],
      "stateMutability": "nonpayable",
      "type": "function"
    },
    {
      "inputs": [],
      "name": "buyNft",
      "outputs": [],
      "stateMutability": "payable",
      "type": "function"
    },
    {
      "inputs": [
        {
          "internalType": "bool",
          "name": "_state",
          "type": "bool"
        }
      ],
      "name": "setAntibot",
      "outputs": [],
      "stateMutability": "nonpayable",
      "type": "function"
    }
  ],
  "bytecode": "0x60806040523480156200001157600080fd5b50604051620038ab380380620038ab833981810160405281019062000037919062000564565b87878160029080519060200190620000519291906200028f565b5080600390805190602001906200006a9291906200028f565b506200007b620001b860201b60201c565b6000819055505050620000a362000097620001c160201b60201c565b620001c960201b60201c565b84600960006101000a8154816dffffffffffffffffffffffffffff02191690836dffffffffffffffffffffffffffff160217905550836009600e6101000a8154816dffffffffffffffffffffffffffff02191690836dffffffffffffffffffffffffffff16021790555082600860146101000a81548160ff02191690831515021790555085600b90805190602001906200013f9291906200028f565b5081600a60006101000a8154816dffffffffffffffffffffffffffff02191690836dffffffffffffffffffffffffffff16021790555080600a600e6101000a8154816dffffffffffffffffffffffffffff02191690836dffffffffffffffffffffffffffff1602179055505050505050505050620006ee565b60006001905090565b600033905090565b6000600860009054906101000a900473ffffffffffffffffffffffffffffffffffffffff16905081600860006101000a81548173ffffffffffffffffffffffffffffffffffffffff021916908373ffffffffffffffffffffffffffffffffffffffff1602179055508173ffffffffffffffffffffffffffffffffffffffff168173ffffffffffffffffffffffffffffffffffffffff167f8be0079c531659141344cd1fd0a4f28419497f9722a3daafe3b4186f6b6457e060405160405180910390a35050565b8280546200029d90620006b9565b90600052602060002090601f016020900481019282620002c157600085556200030d565b82601f10620002dc57805160ff19168380011785556200030d565b828001600101855582156200030d579182015b828111156200030c578251825591602001919060010190620002ef565b5b5090506200031c919062000320565b5090565b5b808211156200033b57600081600090555060010162000321565b5090565b6000604051905090565b600080fd5b600080fd5b600080fd5b600080fd5b6000601f19601f8301169050919050565b7f4e487b7100000000000000000000000000000000000000000000000000000000600052604160045260246000fd5b620003a8826200035d565b810181811067ffffffffffffffff82111715620003ca57620003c96200036e565b5b80604052505050565b6000620003df6200033f565b9050620003ed82826200039d565b919050565b600067ffffffffffffffff82111562000410576200040f6200036e565b5b6200041b826200035d565b9050602081019050919050565b60005b83811015620004485780820151818401526020810190506200042b565b8381111562000458576000848401525b50505050565b6000620004756200046f84620003f2565b620003d3565b90508281526020810184848401111562000494576200049362000358565b5b620004a184828562000428565b509392505050565b600082601f830112620004c157620004c062000353565b5b8151620004d38482602086016200045e565b91505092915050565b60006dffffffffffffffffffffffffffff82169050919050565b6200050181620004dc565b81146200050d57600080fd5b50565b6000815190506200052181620004f6565b92915050565b60008115159050919050565b6200053e8162000527565b81146200054a57600080fd5b50565b6000815190506200055e8162000533565b92915050565b600080600080600080600080610100898b03121562000588576200058762000349565b5b600089015167ffffffffffffffff811115620005a957620005a86200034e565b5b620005b78b828c01620004a9565b985050602089015167ffffffffffffffff811115620005db57620005da6200034e565b5b620005e98b828c01620004a9565b975050604089015167ffffffffffffffff8111156200060d576200060c6200034e565b5b6200061b8b828c01620004a9565b96505060606200062e8b828c0162000510565b9550506080620006418b828c0162000510565b94505060a0620006548b828c016200054d565b93505060c0620006678b828c0162000510565b92505060e06200067a8b828c0162000510565b9150509295985092959890939650565b7f4e487b7100000000000000000000000000000000000000000000000000000000600052602260045260246000fd5b60006002820490506001821680620006d257607f821691505b602082108103620006e857620006e76200068a565b5b50919050565b6131ad80620006fe6000396000f3fe60806040526004361061014b5760003560e01c80638da5cb5b116100b6578063c23dc68f1161006f578063c23dc68f14610480578063c87b56dd146104bd578063e69257c2146104fa578063e71804cd14610504578063e985e9c51461052d578063f2fde38b1461056a5761014b565b80638da5cb5b1461037f57806395d89b41146103aa57806399a2557a146103d5578063a0bcfc7f14610412578063a22cb4651461043b578063b88d4fde146104645761014b565b806342842e0e1161010857806342842e0e146102585780635bbb2177146102745780636352211e146102b157806370a08231146102ee578063715018a61461032b5780638462151c146103425761014b565b806301ffc9a71461015057806306fdde031461018d578063081812fc146101b8578063095ea7b3146101f557806318160ddd1461021157806323b872dd1461023c575b600080fd5b34801561015c57600080fd5b5061017760048036038101906101729190612255565b610593565b604051610184919061229d565b60405180910390f35b34801561019957600080fd5b506101a2610625565b6040516101af9190612351565b60405180910390f35b3480156101c457600080fd5b506101df60048036038101906101da91906123a9565b6106b7565b6040516101ec9190612417565b60405180910390f35b61020f600480360381019061020a919061245e565b610736565b005b34801561021d57600080fd5b5061022661087a565b60405161023391906124ad565b60405180910390f35b610256600480360381019061025191906124c8565b610891565b005b610272600480360381019061026d91906124c8565b610bb3565b005b34801561028057600080fd5b5061029b60048036038101906102969190612580565b610bd3565b6040516102a89190612730565b60405180910390f35b3480156102bd57600080fd5b506102d860048036038101906102d391906123a9565b610c96565b6040516102e59190612417565b60405180910390f35b3480156102fa57600080fd5b5061031560048036038101906103109190612752565b610ca8565b60405161032291906124ad565b60405180910390f35b34801561033757600080fd5b50610340610d60565b005b34801561034e57600080fd5b5061036960048036038101906103649190612752565b610de8565b604051610376919061283d565b60405180910390f35b34801561038b57600080fd5b50610394610f2b565b6040516103a19190612417565b60405180910390f35b3480156103b657600080fd5b506103bf610f55565b6040516103cc9190612351565b60405180910390f35b3480156103e157600080fd5b506103fc60048036038101906103f7919061285f565b610fe7565b604051610409919061283d565b60405180910390f35b34801561041e57600080fd5b50610439600480360381019061043491906129e2565b6111f3565b005b34801561044757600080fd5b50610462600480360381019061045d9190612a57565b611289565b005b61047e60048036038101906104799190612b38565b611394565b005b34801561048c57600080fd5b506104a760048036038101906104a291906123a9565b611407565b6040516104b49190612c10565b60405180910390f35b3480156104c957600080fd5b506104e460048036038101906104df91906123a9565b611471565b6040516104f19190612351565b60405180910390f35b61050261150f565b005b34801561051057600080fd5b5061052b60048036038101906105269190612c2b565b61176b565b005b34801561053957600080fd5b50610554600480360381019061054f9190612c58565b611788565b604051610561919061229d565b60405180910390f35b34801561057657600080fd5b50610591600480360381019061058c9190612752565b61181c565b005b60006301ffc9a760e01b827bffffffffffffffffffffffffffffffffffffffffffffffffffffffff191614806105ee57506380ac58cd60e01b827bffffffffffffffffffffffffffffffffffffffffffffffffffffffff1916145b8061061e5750635b5e139f60e01b827bffffffffffffffffffffffffffffffffffffffffffffffffffffffff1916145b9050919050565b60606002805461063490612cc7565b80601f016020809104026020016040519081016040528092919081815260200182805461066090612cc7565b80156106ad5780601f10610682576101008083540402835291602001916106ad565b820191906000526020600020905b81548152906001019060200180831161069057829003601f168201915b5050505050905090565b60006106c282611913565b6106f8576040517fcf4700e400000000000000000000000000000000000000000000000000000000815260040160405180910390fd5b6006600083815260200190815260200160002060000160009054906101000a900473ffffffffffffffffffffffffffffffffffffffff169050919050565b600061074182610c96565b90508073ffffffffffffffffffffffffffffffffffffffff16610762611972565b73ffffffffffffffffffffffffffffffffffffffff16146107c55761078e81610789611972565b611788565b6107c4576040517fcfb3b94200000000000000000000000000000000000000000000000000000000815260040160405180910390fd5b5b826006600084815260200190815260200160002060000160006101000a81548173ffffffffffffffffffffffffffffffffffffffff021916908373ffffffffffffffffffffffffffffffffffffffff160217905550818373ffffffffffffffffffffffffffffffffffffffff168273ffffffffffffffffffffffffffffffffffffffff167f8c5be1e5ebec7d5bd14f71427d1e84f3dd0314c0f7b2291e5b200ac8c7c3b92560405160405180910390a4505050565b600061088461197a565b6001546000540303905090565b600061089c82611983565b90508373ffffffffffffffffffffffffffffffffffffffff168173ffffffffffffffffffffffffffffffffffffffff1614610903576040517fa114810000000000000000000000000000000000000000000000000000000000815260040160405180910390fd5b60008061090f84611a4f565b915091506109258187610920611972565b611a76565b6109715761093a86610935611972565b611788565b610970576040517f59c896be00000000000000000000000000000000000000000000000000000000815260040160405180910390fd5b5b600073ffffffffffffffffffffffffffffffffffffffff168573ffffffffffffffffffffffffffffffffffffffff16036109d7576040517fea553b3400000000000000000000000000000000000000000000000000000000815260040160405180910390fd5b6109e48686866001611aba565b80156109ef57600082555b600560008773ffffffffffffffffffffffffffffffffffffffff1673ffffffffffffffffffffffffffffffffffffffff168152602001908152602001600020600081546001900391905081905550600560008673ffffffffffffffffffffffffffffffffffffffff1673ffffffffffffffffffffffffffffffffffffffff1681526020019081526020016000206000815460010191905081905550610abd85610a99888887611ac0565b7c020000000000000000000000000000000000000000000000000000000017611ae8565b600460008681526020019081526020016000208190555060007c0200000000000000000000000000000000000000000000000000000000841603610b435760006001850190506000600460008381526020019081526020016000205403610b41576000548114610b40578360046000838152602001908152602001600020819055505b5b505b838573ffffffffffffffffffffffffffffffffffffffff168773ffffffffffffffffffffffffffffffffffffffff167fddf252ad1be2c89b69c2b068fc378daa952ba7f163c4a11628f55a4df523b3ef60405160405180910390a4610bab8686866001611b13565b505050505050565b610bce83838360405180602001604052806000815250611394565b505050565b6060600083839050905060008167ffffffffffffffff811115610bf957610bf86128b7565b5b604051908082528060200260200182016040528015610c3257816020015b610c1f6120f7565b815260200190600190039081610c175790505b50905060005b828114610c8a57610c61868683818110610c5557610c54612cf8565b5b90506020020135611407565b828281518110610c7457610c73612cf8565b5b6020026020010181905250806001019050610c38565b50809250505092915050565b6000610ca182611983565b9050919050565b60008073ffffffffffffffffffffffffffffffffffffffff168273ffffffffffffffffffffffffffffffffffffffff1603610d0f576040517f8f4eb60400000000000000000000000000000000000000000000000000000000815260040160405180910390fd5b67ffffffffffffffff600560008473ffffffffffffffffffffffffffffffffffffffff1673ffffffffffffffffffffffffffffffffffffffff16815260200190815260200160002054169050919050565b610d68611b19565b73ffffffffffffffffffffffffffffffffffffffff16610d86610f2b565b73ffffffffffffffffffffffffffffffffffffffff1614610ddc576040517f08c379a0000000000000000000000000000000000000000000000000000000008152600401610dd390612d73565b60405180910390fd5b610de66000611b21565b565b60606000806000610df885610ca8565b905060008167ffffffffffffffff811115610e1657610e156128b7565b5b604051908082528060200260200182016040528015610e445781602001602082028036833780820191505090505b509050610e4f6120f7565b6000610e5961197a565b90505b838614610f1d57610e6c81611be7565b91508160400151610f1257600073ffffffffffffffffffffffffffffffffffffffff16826000015173ffffffffffffffffffffffffffffffffffffffff1614610eb757816000015194505b8773ffffffffffffffffffffffffffffffffffffffff168573ffffffffffffffffffffffffffffffffffffffff1603610f115780838780600101985081518110610f0457610f03612cf8565b5b6020026020010181815250505b5b806001019050610e5c565b508195505050505050919050565b6000600860009054906101000a900473ffffffffffffffffffffffffffffffffffffffff16905090565b606060038054610f6490612cc7565b80601f0160208091040260200160405190810160405280929190818152602001828054610f9090612cc7565b8015610fdd5780601f10610fb257610100808354040283529160200191610fdd565b820191906000526020600020905b815481529060010190602001808311610fc057829003601f168201915b5050505050905090565b6060818310611022576040517f32c1995a00000000000000000000000000000000000000000000000000000000815260040160405180910390fd5b60008061102d611c12565b905061103761197a565b8510156110495761104661197a565b94505b80841115611055578093505b600061106087610ca8565b90508486101561108357600086860390508181101561107d578091505b50611088565b600090505b60008167ffffffffffffffff8111156110a4576110a36128b7565b5b6040519080825280602002602001820160405280156110d25781602001602082028036833780820191505090505b509050600082036110e957809450505050506111ec565b60006110f488611407565b90506000816040015161110957816000015190505b60008990505b88811415801561111f5750848714155b156111de5761112d81611be7565b925082604001516111d357600073ffffffffffffffffffffffffffffffffffffffff16836000015173ffffffffffffffffffffffffffffffffffffffff161461117857826000015191505b8a73ffffffffffffffffffffffffffffffffffffffff168273ffffffffffffffffffffffffffffffffffffffff16036111d257808488806001019950815181106111c5576111c4612cf8565b5b6020026020010181815250505b5b80600101905061110f565b508583528296505050505050505b9392505050565b6111fb611b19565b73ffffffffffffffffffffffffffffffffffffffff16611219610f2b565b73ffffffffffffffffffffffffffffffffffffffff161461126f576040517f08c379a000000000000000000000000000000000000000000000000000000000815260040161126690612d73565b60405180910390fd5b80600b9080519060200190611285929190612146565b5050565b8060076000611296611972565b73ffffffffffffffffffffffffffffffffffffffff1673ffffffffffffffffffffffffffffffffffffffff16815260200190815260200160002060008473ffffffffffffffffffffffffffffffffffffffff1673ffffffffffffffffffffffffffffffffffffffff16815260200190815260200160002060006101000a81548160ff0219169083151502179055508173ffffffffffffffffffffffffffffffffffffffff16611343611972565b73ffffffffffffffffffffffffffffffffffffffff167f17307eab39ab6107e8899845ad3d59bd9653f200f220920489ca2b5937696c3183604051611388919061229d565b60405180910390a35050565b61139f848484610891565b60008373ffffffffffffffffffffffffffffffffffffffff163b14611401576113ca84848484611c1b565b611400576040517fd1a57ed600000000000000000000000000000000000000000000000000000000815260040160405180910390fd5b5b50505050565b61140f6120f7565b6114176120f7565b61141f61197a565b831080611433575061142f611c12565b8310155b15611441578091505061146c565b61144a83611be7565b905080604001511561145f578091505061146c565b61146883611d6b565b9150505b919050565b606061147c82611913565b6114b2576040517fa14c4b5000000000000000000000000000000000000000000000000000000000815260040160405180910390fd5b60006114bc611d8b565b905060008151036114dc5760405180602001604052806000815250611507565b806114e684611e1d565b6040516020016114f7929190612dcf565b6040516020818303038152906040525b915050919050565b600960009054906101000a90046dffffffffffffffffffffffffffff166dffffffffffffffffffffffffffff16341161157d576040517f08c379a000000000000000000000000000000000000000000000000000000000815260040161157490612e3f565b60405180910390fd5b42600a60009054906101000a90046dffffffffffffffffffffffffffff166dffffffffffffffffffffffffffff161180156115e3575042600a600e9054906101000a90046dffffffffffffffffffffffffffff166dffffffffffffffffffffffffffff16105b611622576040517f08c379a000000000000000000000000000000000000000000000000000000000815260040161161990612eab565b60405180910390fd5b600860149054906101000a900460ff161561169757655af3107a40003373ffffffffffffffffffffffffffffffffffffffff163111611696576040517f08c379a000000000000000000000000000000000000000000000000000000000815260040161168d90612f3d565b60405180910390fd5b5b6000600960009054906101000a90046dffffffffffffffffffffffffffff166dffffffffffffffffffffffffffff16346116d19190612f8c565b90506116db610f2b565b73ffffffffffffffffffffffffffffffffffffffff166108fc349081150290604051600060405180830381858888f19350505050158015611720573d6000803e3d6000fd5b5061172b3382611e6d565b7fb662b8feec5dabf7be69e2c823d2f59ba01d845f35dc98f4ade3c9f98acfef05333483426040516117609493929190612fbd565b60405180910390a150565b80600860146101000a81548160ff02191690831515021790555050565b6000600760008473ffffffffffffffffffffffffffffffffffffffff1673ffffffffffffffffffffffffffffffffffffffff16815260200190815260200160002060008373ffffffffffffffffffffffffffffffffffffffff1673ffffffffffffffffffffffffffffffffffffffff16815260200190815260200160002060009054906101000a900460ff16905092915050565b611824611b19565b73ffffffffffffffffffffffffffffffffffffffff16611842610f2b565b73ffffffffffffffffffffffffffffffffffffffff1614611898576040517f08c379a000000000000000000000000000000000000000000000000000000000815260040161188f90612d73565b60405180910390fd5b600073ffffffffffffffffffffffffffffffffffffffff168173ffffffffffffffffffffffffffffffffffffffff1603611907576040517f08c379a00000000000000000000000000000000000000000000000000000000081526004016118fe90613074565b60405180910390fd5b61191081611b21565b50565b60008161191e61197a565b1115801561192d575060005482105b801561196b575060007c0100000000000000000000000000000000000000000000000000000000600460008581526020019081526020016000205416145b9050919050565b600033905090565b60006001905090565b6000808290508061199261197a565b11611a1857600054811015611a175760006004600083815260200190815260200160002054905060007c0100000000000000000000000000000000000000000000000000000000821603611a15575b60008103611a0b5760046000836001900393508381526020019081526020016000205490506119e1565b8092505050611a4a565b505b5b6040517fdf2d9b4200000000000000000000000000000000000000000000000000000000815260040160405180910390fd5b919050565b60008060006006600085815260200190815260200160002090508092508254915050915091565b600073ffffffffffffffffffffffffffffffffffffffff8316925073ffffffffffffffffffffffffffffffffffffffff821691508382148383141790509392505050565b50505050565b60008060e883901c905060e8611ad7868684612028565b62ffffff16901b9150509392505050565b600073ffffffffffffffffffffffffffffffffffffffff83169250814260a01b178317905092915050565b50505050565b600033905090565b6000600860009054906101000a900473ffffffffffffffffffffffffffffffffffffffff16905081600860006101000a81548173ffffffffffffffffffffffffffffffffffffffff021916908373ffffffffffffffffffffffffffffffffffffffff1602179055508173ffffffffffffffffffffffffffffffffffffffff168173ffffffffffffffffffffffffffffffffffffffff167f8be0079c531659141344cd1fd0a4f28419497f9722a3daafe3b4186f6b6457e060405160405180910390a35050565b611bef6120f7565b611c0b6004600084815260200190815260200160002054612031565b9050919050565b60008054905090565b60008373ffffffffffffffffffffffffffffffffffffffff1663150b7a02611c41611972565b8786866040518563ffffffff1660e01b8152600401611c6394939291906130e9565b6020604051808303816000875af1925050508015611c9f57506040513d601f19601f82011682018060405250810190611c9c919061314a565b60015b611d18573d8060008114611ccf576040519150601f19603f3d011682016040523d82523d6000602084013e611cd4565b606091505b506000815103611d10576040517fd1a57ed600000000000000000000000000000000000000000000000000000000815260040160405180910390fd5b805181602001fd5b63150b7a0260e01b7bffffffffffffffffffffffffffffffffffffffffffffffffffffffff1916817bffffffffffffffffffffffffffffffffffffffffffffffffffffffff191614915050949350505050565b611d736120f7565b611d84611d7f83611983565b612031565b9050919050565b6060600b8054611d9a90612cc7565b80601f0160208091040260200160405190810160405280929190818152602001828054611dc690612cc7565b8015611e135780601f10611de857610100808354040283529160200191611e13565b820191906000526020600020905b815481529060010190602001808311611df657829003601f168201915b5050505050905090565b606060a060405101806040526020810391506000825281835b600115611e5857600184039350600a81066030018453600a8104905080611e36575b50828103602084039350808452505050919050565b60008054905060008203611ead576040517fb562e8dd00000000000000000000000000000000000000000000000000000000815260040160405180910390fd5b611eba6000848385611aba565b600160406001901b178202600560008573ffffffffffffffffffffffffffffffffffffffff1673ffffffffffffffffffffffffffffffffffffffff16815260200190815260200160002060008282540192505081905550611f3183611f226000866000611ac0565b611f2b856120e7565b17611ae8565b6004600083815260200190815260200160002081905550600080838301905073ffffffffffffffffffffffffffffffffffffffff85169150828260007fddf252ad1be2c89b69c2b068fc378daa952ba7f163c4a11628f55a4df523b3ef600080a4600183015b818114611fd257808360007fddf252ad1be2c89b69c2b068fc378daa952ba7f163c4a11628f55a4df523b3ef600080a4600181019050611f97565b506000820361200d576040517f2e07630000000000000000000000000000000000000000000000000000000000815260040160405180910390fd5b8060008190555050506120236000848385611b13565b505050565b60009392505050565b6120396120f7565b81816000019073ffffffffffffffffffffffffffffffffffffffff16908173ffffffffffffffffffffffffffffffffffffffff168152505060a082901c816020019067ffffffffffffffff16908167ffffffffffffffff168152505060007c01000000000000000000000000000000000000000000000000000000008316141581604001901515908115158152505060e882901c816060019062ffffff16908162ffffff1681525050919050565b60006001821460e11b9050919050565b6040518060800160405280600073ffffffffffffffffffffffffffffffffffffffff168152602001600067ffffffffffffffff168152602001600015158152602001600062ffffff1681525090565b82805461215290612cc7565b90600052602060002090601f01602090048101928261217457600085556121bb565b82601f1061218d57805160ff19168380011785556121bb565b828001600101855582156121bb579182015b828111156121ba57825182559160200191906001019061219f565b5b5090506121c891906121cc565b5090565b5b808211156121e55760008160009055506001016121cd565b5090565b6000604051905090565b600080fd5b600080fd5b60007fffffffff0000000000000000000000000000000000000000000000000000000082169050919050565b612232816121fd565b811461223d57600080fd5b50565b60008135905061224f81612229565b92915050565b60006020828403121561226b5761226a6121f3565b5b600061227984828501612240565b91505092915050565b60008115159050919050565b61229781612282565b82525050565b60006020820190506122b2600083018461228e565b92915050565b600081519050919050565b600082825260208201905092915050565b60005b838110156122f25780820151818401526020810190506122d7565b83811115612301576000848401525b50505050565b6000601f19601f8301169050919050565b6000612323826122b8565b61232d81856122c3565b935061233d8185602086016122d4565b61234681612307565b840191505092915050565b6000602082019050818103600083015261236b8184612318565b905092915050565b6000819050919050565b61238681612373565b811461239157600080fd5b50565b6000813590506123a38161237d565b92915050565b6000602082840312156123bf576123be6121f3565b5b60006123cd84828501612394565b91505092915050565b600073ffffffffffffffffffffffffffffffffffffffff82169050919050565b6000612401826123d6565b9050919050565b612411816123f6565b82525050565b600060208201905061242c6000830184612408565b92915050565b61243b816123f6565b811461244657600080fd5b50565b60008135905061245881612432565b92915050565b60008060408385031215612475576124746121f3565b5b600061248385828601612449565b925050602061249485828601612394565b9150509250929050565b6124a781612373565b82525050565b60006020820190506124c2600083018461249e565b92915050565b6000806000606084860312156124e1576124e06121f3565b5b60006124ef86828701612449565b935050602061250086828701612449565b925050604061251186828701612394565b9150509250925092565b600080fd5b600080fd5b600080fd5b60008083601f8401126125405761253f61251b565b5b8235905067ffffffffffffffff81111561255d5761255c612520565b5b60208301915083602082028301111561257957612578612525565b5b9250929050565b60008060208385031215612597576125966121f3565b5b600083013567ffffffffffffffff8111156125b5576125b46121f8565b5b6125c18582860161252a565b92509250509250929050565b600081519050919050565b600082825260208201905092915050565b6000819050602082019050919050565b612602816123f6565b82525050565b600067ffffffffffffffff82169050919050565b61262581612608565b82525050565b61263481612282565b82525050565b600062ffffff82169050919050565b6126528161263a565b82525050565b60808201600082015161266e60008501826125f9565b506020820151612681602085018261261c565b506040820151612694604085018261262b565b5060608201516126a76060850182612649565b50505050565b60006126b98383612658565b60808301905092915050565b6000602082019050919050565b60006126dd826125cd565b6126e781856125d8565b93506126f2836125e9565b8060005b8381101561272357815161270a88826126ad565b9750612715836126c5565b9250506001810190506126f6565b5085935050505092915050565b6000602082019050818103600083015261274a81846126d2565b905092915050565b600060208284031215612768576127676121f3565b5b600061277684828501612449565b91505092915050565b600081519050919050565b600082825260208201905092915050565b6000819050602082019050919050565b6127b481612373565b82525050565b60006127c683836127ab565b60208301905092915050565b6000602082019050919050565b60006127ea8261277f565b6127f4818561278a565b93506127ff8361279b565b8060005b8381101561283057815161281788826127ba565b9750612822836127d2565b925050600181019050612803565b5085935050505092915050565b6000602082019050818103600083015261285781846127df565b905092915050565b600080600060608486031215612878576128776121f3565b5b600061288686828701612449565b935050602061289786828701612394565b92505060406128a886828701612394565b9150509250925092565b600080fd5b7f4e487b7100000000000000000000000000000000000000000000000000000000600052604160045260246000fd5b6128ef82612307565b810181811067ffffffffffffffff8211171561290e5761290d6128b7565b5b80604052505050565b60006129216121e9565b905061292d82826128e6565b919050565b600067ffffffffffffffff82111561294d5761294c6128b7565b5b61295682612307565b9050602081019050919050565b82818337600083830152505050565b600061298561298084612932565b612917565b9050828152602081018484840111156129a1576129a06128b2565b5b6129ac848285612963565b509392505050565b600082601f8301126129c9576129c861251b565b5b81356129d9848260208601612972565b91505092915050565b6000602082840312156129f8576129f76121f3565b5b600082013567ffffffffffffffff811115612a1657612a156121f8565b5b612a22848285016129b4565b91505092915050565b612a3481612282565b8114612a3f57600080fd5b50565b600081359050612a5181612a2b565b92915050565b60008060408385031215612a6e57612a6d6121f3565b5b6000612a7c85828601612449565b9250506020612a8d85828601612a42565b9150509250929050565b600067ffffffffffffffff821115612ab257612ab16128b7565b5b612abb82612307565b9050602081019050919050565b6000612adb612ad684612a97565b612917565b905082815260208101848484011115612af757612af66128b2565b5b612b02848285612963565b509392505050565b600082601f830112612b1f57612b1e61251b565b5b8135612b2f848260208601612ac8565b91505092915050565b60008060008060808587031215612b5257612b516121f3565b5b6000612b6087828801612449565b9450506020612b7187828801612449565b9350506040612b8287828801612394565b925050606085013567ffffffffffffffff811115612ba357612ba26121f8565b5b612baf87828801612b0a565b91505092959194509250565b608082016000820151612bd160008501826125f9565b506020820151612be4602085018261261c565b506040820151612bf7604085018261262b565b506060820151612c0a6060850182612649565b50505050565b6000608082019050612c256000830184612bbb565b92915050565b600060208284031215612c4157612c406121f3565b5b6000612c4f84828501612a42565b91505092915050565b60008060408385031215612c6f57612c6e6121f3565b5b6000612c7d85828601612449565b9250506020612c8e85828601612449565b9150509250929050565b7f4e487b7100000000000000000000000000000000000000000000000000000000600052602260045260246000fd5b60006002820490506001821680612cdf57607f821691505b602082108103612cf257612cf1612c98565b5b50919050565b7f4e487b7100000000000000000000000000000000000000000000000000000000600052603260045260246000fd5b7f4f776e61626c653a2063616c6c6572206973206e6f7420746865206f776e6572600082015250565b6000612d5d6020836122c3565b9150612d6882612d27565b602082019050919050565b60006020820190508181036000830152612d8c81612d50565b9050919050565b600081905092915050565b6000612da9826122b8565b612db38185612d93565b9350612dc38185602086016122d4565b80840191505092915050565b6000612ddb8285612d9e565b9150612de78284612d9e565b91508190509392505050565b7f4861766520746f206275792061746c65617374206f6e65000000000000000000600082015250565b6000612e296017836122c3565b9150612e3482612df3565b602082019050919050565b60006020820190508181036000830152612e5881612e1c565b9050919050565b7f456e646564206f72206e6f742073746172746564207965740000000000000000600082015250565b6000612e956018836122c3565b9150612ea082612e5f565b602082019050919050565b60006020820190508181036000830152612ec481612e88565b9050919050565b7f416e7469426f743a20496e73756666696369656e74206163636f756e7420626160008201527f6c616e6365000000000000000000000000000000000000000000000000000000602082015250565b6000612f276025836122c3565b9150612f3282612ecb565b604082019050919050565b60006020820190508181036000830152612f5681612f1a565b9050919050565b7f4e487b7100000000000000000000000000000000000000000000000000000000600052601260045260246000fd5b6000612f9782612373565b9150612fa283612373565b925082612fb257612fb1612f5d565b5b828204905092915050565b6000608082019050612fd26000830187612408565b612fdf602083018661249e565b612fec604083018561249e565b612ff9606083018461249e565b95945050505050565b7f4f776e61626c653a206e6577206f776e657220697320746865207a65726f206160008201527f6464726573730000000000000000000000000000000000000000000000000000602082015250565b600061305e6026836122c3565b915061306982613002565b604082019050919050565b6000602082019050818103600083015261308d81613051565b9050919050565b600081519050919050565b600082825260208201905092915050565b60006130bb82613094565b6130c5818561309f565b93506130d58185602086016122d4565b6130de81612307565b840191505092915050565b60006080820190506130fe6000830187612408565b61310b6020830186612408565b613118604083018561249e565b818103606083015261312a81846130b0565b905095945050505050565b60008151905061314481612229565b92915050565b6000602082840312156131605761315f6121f3565b5b600061316e84828501613135565b9150509291505056fea26469706673582212205dbf98792d2471ef2a01509b4ee62c6ad836bd5760e1d366f3952abb667d68fc64736f6c634300080d0033",
  "immutableReferences": {},
  "source": "// SPDX-License-Identifier: MIT\r\npragma solidity 0.8.13;\r\n\r\nimport \"erc721a/contracts/extensions/ERC721AQueryable.sol\";\r\nimport \"openzeppelin-solidity/contracts/access/Ownable.sol\";\r\n\r\ncontract NftQueryable is ERC721AQueryable, Ownable {\r\n  bool antibot;\r\n\r\n  uint112 nftPrice;\r\n  uint112 maxSupply;\r\n\r\n  uint112 startTime;\r\n  uint112 endTime;\r\n\r\n  string private baseUri;\r\n\r\n  event BuyNft(address to, uint256 ethAmount, uint256 quantity, uint256 timestamp);\r\n\r\n  constructor(string memory _name, string memory _symbol, string memory baseUri_, uint112 _nftPrice, uint112 _maxSupply, bool _antibot, uint112 _startTime, uint112 _endTime) ERC721A(_name, _symbol) {\r\n    nftPrice = _nftPrice;\r\n    maxSupply = _maxSupply;\r\n    antibot = _antibot;\r\n    baseUri = baseUri_;\r\n    startTime = _startTime;\r\n    endTime = _endTime;\r\n  }\r\n\r\n  function _startTokenId() internal override view virtual returns (uint256) {\r\n    return 1;\r\n  }\r\n\r\n  function _baseURI() internal view virtual override returns (string memory) {\r\n    return baseUri;\r\n  }\r\n\r\n  function setBaseUri(string memory _newUri) external onlyOwner {\r\n    baseUri = _newUri;\r\n  }\r\n\r\n  function buyNft() public payable {\r\n    require(msg.value > nftPrice, \"Have to buy atleast one\");\r\n    require(startTime > block.timestamp && endTime < block.timestamp, \"Ended or not started yet\");\r\n    if(antibot){\r\n      require(address(msg.sender).balance > 0.0001 ether, \"AntiBot: Insufficient account balance\");\r\n    }\r\n    uint quantity = msg.value/nftPrice;\r\n    payable(owner()).transfer(msg.value);\r\n    _mint(msg.sender, quantity);\r\n    emit BuyNft(msg.sender, msg.value, quantity, block.timestamp);\r\n  } \r\n\r\n  function setAntibot(bool _state) public {\r\n    antibot = _state;\r\n  }\r\n}",
  "sourcePath": "C:\\Users\\JSON-BSON\\Documents\\blockboyBenji\\Launchpad\\main-template\\contracts\\contracts\\NftQueryable.sol",
  "compiler": {
    "name": "solc",
    "version": "0.8.13+commit.abaa5c0e.Emscripten.clang"
  },
  "schemaVersion": "3.4.7",
  "updatedAt": "2022-11-15T08:12:12.066Z",
  "devdoc": {
    "kind": "dev",
    "methods": {
      "approve(address,uint256)": {
        "details": "Gives permission to `to` to transfer `tokenId` token to another account. The approval is cleared when the token is transferred. Only a single account can be approved at a time, so approving the zero address clears previous approvals. Requirements: - The caller must own the token or be an approved operator. - `tokenId` must exist. Emits an {Approval} event."
      },
      "balanceOf(address)": {
        "details": "Returns the number of tokens in `owner`'s account."
      },
      "explicitOwnershipOf(uint256)": {
        "details": "Returns the `TokenOwnership` struct at `tokenId` without reverting. If the `tokenId` is out of bounds: - `addr = address(0)` - `startTimestamp = 0` - `burned = false` - `extraData = 0` If the `tokenId` is burned: - `addr = <Address of owner before token was burned>` - `startTimestamp = <Timestamp when token was burned>` - `burned = true` - `extraData = <Extra data when token was burned>` Otherwise: - `addr = <Address of owner>` - `startTimestamp = <Timestamp of start of ownership>` - `burned = false` - `extraData = <Extra data at start of ownership>`"
      },
      "explicitOwnershipsOf(uint256[])": {
        "details": "Returns an array of `TokenOwnership` structs at `tokenIds` in order. See {ERC721AQueryable-explicitOwnershipOf}"
      },
      "getApproved(uint256)": {
        "details": "Returns the account approved for `tokenId` token. Requirements: - `tokenId` must exist."
      },
      "isApprovedForAll(address,address)": {
        "details": "Returns if the `operator` is allowed to manage all of the assets of `owner`. See {setApprovalForAll}."
      },
      "name()": {
        "details": "Returns the token collection name."
      },
      "owner()": {
        "details": "Returns the address of the current owner."
      },
      "ownerOf(uint256)": {
        "details": "Returns the owner of the `tokenId` token. Requirements: - `tokenId` must exist."
      },
      "renounceOwnership()": {
        "details": "Leaves the contract without owner. It will not be possible to call `onlyOwner` functions anymore. Can only be called by the current owner. NOTE: Renouncing ownership will leave the contract without an owner, thereby removing any functionality that is only available to the owner."
      },
      "safeTransferFrom(address,address,uint256)": {
        "details": "Equivalent to `safeTransferFrom(from, to, tokenId, '')`."
      },
      "safeTransferFrom(address,address,uint256,bytes)": {
        "details": "Safely transfers `tokenId` token from `from` to `to`. Requirements: - `from` cannot be the zero address. - `to` cannot be the zero address. - `tokenId` token must exist and be owned by `from`. - If the caller is not `from`, it must be approved to move this token by either {approve} or {setApprovalForAll}. - If `to` refers to a smart contract, it must implement {IERC721Receiver-onERC721Received}, which is called upon a safe transfer. Emits a {Transfer} event."
      },
      "setApprovalForAll(address,bool)": {
        "details": "Approve or remove `operator` as an operator for the caller. Operators can call {transferFrom} or {safeTransferFrom} for any token owned by the caller. Requirements: - The `operator` cannot be the caller. Emits an {ApprovalForAll} event."
      },
      "supportsInterface(bytes4)": {
        "details": "Returns true if this contract implements the interface defined by `interfaceId`. See the corresponding [EIP section](https://eips.ethereum.org/EIPS/eip-165#how-interfaces-are-identified) to learn more about how these ids are created. This function call must use less than 30000 gas."
      },
      "symbol()": {
        "details": "Returns the token collection symbol."
      },
      "tokenURI(uint256)": {
        "details": "Returns the Uniform Resource Identifier (URI) for `tokenId` token."
      },
      "tokensOfOwner(address)": {
        "details": "Returns an array of token IDs owned by `owner`. This function scans the ownership mapping and is O(`totalSupply`) in complexity. It is meant to be called off-chain. See {ERC721AQueryable-tokensOfOwnerIn} for splitting the scan into multiple smaller scans if the collection is large enough to cause an out-of-gas error (10K collections should be fine)."
      },
      "tokensOfOwnerIn(address,uint256,uint256)": {
        "details": "Returns an array of token IDs owned by `owner`, in the range [`start`, `stop`) (i.e. `start <= tokenId < stop`). This function allows for tokens to be queried if the collection grows too big for a single call of {ERC721AQueryable-tokensOfOwner}. Requirements: - `start < stop`"
      },
      "totalSupply()": {
        "details": "Returns the total number of tokens in existence. Burned tokens will reduce the count. To get the total number of tokens minted, please see {_totalMinted}."
      },
      "transferFrom(address,address,uint256)": {
        "details": "Transfers `tokenId` from `from` to `to`. Requirements: - `from` cannot be the zero address. - `to` cannot be the zero address. - `tokenId` token must be owned by `from`. - If the caller is not `from`, it must be approved to move this token by either {approve} or {setApprovalForAll}. Emits a {Transfer} event."
      },
      "transferOwnership(address)": {
        "details": "Transfers ownership of the contract to a new account (`newOwner`). Can only be called by the current owner."
      }
    },
    "version": 1
  },
  "userdoc": {
    "errors": {
      "ApprovalCallerNotOwnerNorApproved()": [
        {
          "notice": "The caller must own the token or be an approved operator."
        }
      ],
      "ApprovalQueryForNonexistentToken()": [
        {
          "notice": "The token does not exist."
        }
      ],
      "BalanceQueryForZeroAddress()": [
        {
          "notice": "Cannot query the balance for the zero address."
        }
      ],
      "InvalidQueryRange()": [
        {
          "notice": "Invalid query range (`start` >= `stop`)."
        }
      ],
      "MintERC2309QuantityExceedsLimit()": [
        {
          "notice": "The `quantity` minted with ERC2309 exceeds the safety limit."
        }
      ],
      "MintToZeroAddress()": [
        {
          "notice": "Cannot mint to the zero address."
        }
      ],
      "MintZeroQuantity()": [
        {
          "notice": "The quantity of tokens minted must be more than zero."
        }
      ],
      "OwnerQueryForNonexistentToken()": [
        {
          "notice": "The token does not exist."
        }
      ],
      "OwnershipNotInitializedForExtraData()": [
        {
          "notice": "The `extraData` cannot be set on an unintialized ownership slot."
        }
      ],
      "TransferCallerNotOwnerNorApproved()": [
        {
          "notice": "The caller must own the token or be an approved operator."
        }
      ],
      "TransferFromIncorrectOwner()": [
        {
          "notice": "The token must be owned by `from`."
        }
      ],
      "TransferToNonERC721ReceiverImplementer()": [
        {
          "notice": "Cannot safely transfer to a contract that does not implement the ERC721Receiver interface."
        }
      ],
      "TransferToZeroAddress()": [
        {
          "notice": "Cannot transfer to the zero address."
        }
      ],
      "URIQueryForNonexistentToken()": [
        {
          "notice": "The token does not exist."
        }
      ]
    },
    "kind": "user",
    "methods": {},
    "version": 1
  }
}